{
  "contractName": "SensorToken",
  "abi": [
    {
      "inputs": [],
      "stateMutability": "nonpayable",
      "type": "constructor"
    },
    {
      "inputs": [
        {
          "internalType": "address",
          "name": "spender",
          "type": "address"
        },
        {
          "internalType": "uint256",
          "name": "allowance",
          "type": "uint256"
        },
        {
          "internalType": "uint256",
          "name": "needed",
          "type": "uint256"
        }
      ],
      "name": "ERC20InsufficientAllowance",
      "type": "error"
    },
    {
      "inputs": [
        {
          "internalType": "address",
          "name": "sender",
          "type": "address"
        },
        {
          "internalType": "uint256",
          "name": "balance",
          "type": "uint256"
        },
        {
          "internalType": "uint256",
          "name": "needed",
          "type": "uint256"
        }
      ],
      "name": "ERC20InsufficientBalance",
      "type": "error"
    },
    {
      "inputs": [
        {
          "internalType": "address",
          "name": "approver",
          "type": "address"
        }
      ],
      "name": "ERC20InvalidApprover",
      "type": "error"
    },
    {
      "inputs": [
        {
          "internalType": "address",
          "name": "receiver",
          "type": "address"
        }
      ],
      "name": "ERC20InvalidReceiver",
      "type": "error"
    },
    {
      "inputs": [
        {
          "internalType": "address",
          "name": "sender",
          "type": "address"
        }
      ],
      "name": "ERC20InvalidSender",
      "type": "error"
    },
    {
      "inputs": [
        {
          "internalType": "address",
          "name": "spender",
          "type": "address"
        }
      ],
      "name": "ERC20InvalidSpender",
      "type": "error"
    },
    {
      "anonymous": false,
      "inputs": [
        {
          "indexed": true,
          "internalType": "address",
          "name": "owner",
          "type": "address"
        },
        {
          "indexed": true,
          "internalType": "address",
          "name": "spender",
          "type": "address"
        },
        {
          "indexed": false,
          "internalType": "uint256",
          "name": "value",
          "type": "uint256"
        }
      ],
      "name": "Approval",
      "type": "event"
    },
    {
      "anonymous": false,
      "inputs": [
        {
          "indexed": true,
          "internalType": "address",
          "name": "from",
          "type": "address"
        },
        {
          "indexed": true,
          "internalType": "address",
          "name": "to",
          "type": "address"
        },
        {
          "indexed": false,
          "internalType": "uint256",
          "name": "value",
          "type": "uint256"
        }
      ],
      "name": "Transfer",
      "type": "event"
    },
    {
      "inputs": [],
      "name": "admin",
      "outputs": [
        {
          "internalType": "address",
          "name": "",
          "type": "address"
        }
      ],
      "stateMutability": "view",
      "type": "function",
      "constant": true
    },
    {
      "inputs": [
        {
          "internalType": "address",
          "name": "owner",
          "type": "address"
        },
        {
          "internalType": "address",
          "name": "spender",
          "type": "address"
        }
      ],
      "name": "allowance",
      "outputs": [
        {
          "internalType": "uint256",
          "name": "",
          "type": "uint256"
        }
      ],
      "stateMutability": "view",
      "type": "function",
      "constant": true
    },
    {
      "inputs": [
        {
          "internalType": "address",
          "name": "spender",
          "type": "address"
        },
        {
          "internalType": "uint256",
          "name": "value",
          "type": "uint256"
        }
      ],
      "name": "approve",
      "outputs": [
        {
          "internalType": "bool",
          "name": "",
          "type": "bool"
        }
      ],
      "stateMutability": "nonpayable",
      "type": "function"
    },
    {
      "inputs": [
        {
          "internalType": "address",
          "name": "account",
          "type": "address"
        }
      ],
      "name": "balanceOf",
      "outputs": [
        {
          "internalType": "uint256",
          "name": "",
          "type": "uint256"
        }
      ],
      "stateMutability": "view",
      "type": "function",
      "constant": true
    },
    {
      "inputs": [],
      "name": "decimals",
      "outputs": [
        {
          "internalType": "uint8",
          "name": "",
          "type": "uint8"
        }
      ],
      "stateMutability": "view",
      "type": "function",
      "constant": true
    },
    {
      "inputs": [],
      "name": "name",
      "outputs": [
        {
          "internalType": "string",
          "name": "",
          "type": "string"
        }
      ],
      "stateMutability": "view",
      "type": "function",
      "constant": true
    },
    {
      "inputs": [],
      "name": "symbol",
      "outputs": [
        {
          "internalType": "string",
          "name": "",
          "type": "string"
        }
      ],
      "stateMutability": "view",
      "type": "function",
      "constant": true
    },
    {
      "inputs": [],
      "name": "totalSupply",
      "outputs": [
        {
          "internalType": "uint256",
          "name": "",
          "type": "uint256"
        }
      ],
      "stateMutability": "view",
      "type": "function",
      "constant": true
    },
    {
      "inputs": [
        {
          "internalType": "address",
          "name": "to",
          "type": "address"
        },
        {
          "internalType": "uint256",
          "name": "value",
          "type": "uint256"
        }
      ],
      "name": "transfer",
      "outputs": [
        {
          "internalType": "bool",
          "name": "",
          "type": "bool"
        }
      ],
      "stateMutability": "nonpayable",
      "type": "function"
    },
    {
      "inputs": [
        {
          "internalType": "address",
          "name": "from",
          "type": "address"
        },
        {
          "internalType": "address",
          "name": "to",
          "type": "address"
        },
        {
          "internalType": "uint256",
          "name": "value",
          "type": "uint256"
        }
      ],
      "name": "transferFrom",
      "outputs": [
        {
          "internalType": "bool",
          "name": "",
          "type": "bool"
        }
      ],
      "stateMutability": "nonpayable",
      "type": "function"
    },
    {
      "inputs": [
        {
          "internalType": "address",
          "name": "sensor",
          "type": "address"
        },
        {
          "internalType": "uint256",
          "name": "amount",
          "type": "uint256"
        }
      ],
      "name": "rewardSensor",
      "outputs": [],
      "stateMutability": "nonpayable",
      "type": "function"
    }
  ],
  "bytecode": "0x608060405234801562000010575f80fd5b506040518060400160405280600b81526020017f53656e736f72546f6b656e0000000000000000000000000000000000000000008152506040518060400160405280600381526020017f534e54000000000000000000000000000000000000000000000000000000000081525081600390816200008e919062000642565b508060049081620000a0919062000642565b5050503360055f6101000a81548173ffffffffffffffffffffffffffffffffffffffff021916908373ffffffffffffffffffffffffffffffffffffffff1602179055506200012233620000f86200012860201b60201c565b600a620001069190620008af565b620f4240620001169190620008ff565b6200013060201b60201c565b62000a48565b5f6012905090565b5f73ffffffffffffffffffffffffffffffffffffffff168273ffffffffffffffffffffffffffffffffffffffff1603620001a3575f6040517fec442f050000000000000000000000000000000000000000000000000000000081526004016200019a91906200098c565b60405180910390fd5b620001b65f8383620001ba60201b60201c565b5050565b5f73ffffffffffffffffffffffffffffffffffffffff168373ffffffffffffffffffffffffffffffffffffffff16036200020e578060025f828254620002019190620009a7565b92505081905550620002df565b5f805f8573ffffffffffffffffffffffffffffffffffffffff1673ffffffffffffffffffffffffffffffffffffffff1681526020019081526020015f20549050818110156200029a578381836040517fe450d38c0000000000000000000000000000000000000000000000000000000081526004016200029193929190620009f2565b60405180910390fd5b8181035f808673ffffffffffffffffffffffffffffffffffffffff1673ffffffffffffffffffffffffffffffffffffffff1681526020019081526020015f2081905550505b5f73ffffffffffffffffffffffffffffffffffffffff168273ffffffffffffffffffffffffffffffffffffffff160362000328578060025f828254039250508190555062000372565b805f808473ffffffffffffffffffffffffffffffffffffffff1673ffffffffffffffffffffffffffffffffffffffff1681526020019081526020015f205f82825401925050819055505b8173ffffffffffffffffffffffffffffffffffffffff168373ffffffffffffffffffffffffffffffffffffffff167fddf252ad1be2c89b69c2b068fc378daa952ba7f163c4a11628f55a4df523b3ef83604051620003d1919062000a2d565b60405180910390a3505050565b5f81519050919050565b7f4e487b71000000000000000000000000000000000000000000000000000000005f52604160045260245ffd5b7f4e487b71000000000000000000000000000000000000000000000000000000005f52602260045260245ffd5b5f60028204905060018216806200045a57607f821691505b60208210810362000470576200046f62000415565b5b50919050565b5f819050815f5260205f209050919050565b5f6020601f8301049050919050565b5f82821b905092915050565b5f60088302620004d47fffffffffffffffffffffffffffffffffffffffffffffffffffffffffffffffff8262000497565b620004e0868362000497565b95508019841693508086168417925050509392505050565b5f819050919050565b5f819050919050565b5f6200052a620005246200051e84620004f8565b62000501565b620004f8565b9050919050565b5f819050919050565b62000545836200050a565b6200055d620005548262000531565b848454620004a3565b825550505050565b5f90565b6200057362000565565b620005808184846200053a565b505050565b5b81811015620005a7576200059b5f8262000569565b60018101905062000586565b5050565b601f821115620005f657620005c08162000476565b620005cb8462000488565b81016020851015620005db578190505b620005f3620005ea8562000488565b83018262000585565b50505b505050565b5f82821c905092915050565b5f620006185f1984600802620005fb565b1980831691505092915050565b5f62000632838362000607565b9150826002028217905092915050565b6200064d82620003de565b67ffffffffffffffff811115620006695762000668620003e8565b5b62000675825462000442565b62000682828285620005ab565b5f60209050601f831160018114620006b8575f8415620006a3578287015190505b620006af858262000625565b8655506200071e565b601f198416620006c88662000476565b5f5b82811015620006f157848901518255600182019150602085019450602081019050620006ca565b868310156200071157848901516200070d601f89168262000607565b8355505b6001600288020188555050505b505050505050565b7f4e487b71000000000000000000000000000000000000000000000000000000005f52601160045260245ffd5b5f8160011c9050919050565b5f808291508390505b6001851115620007b05780860481111562000788576200078762000726565b5b6001851615620007985780820291505b8081029050620007a88562000753565b945062000768565b94509492505050565b5f82620007ca57600190506200089c565b81620007d9575f90506200089c565b8160018114620007f25760028114620007fd5762000833565b60019150506200089c565b60ff84111562000812576200081162000726565b5b8360020a9150848211156200082c576200082b62000726565b5b506200089c565b5060208310610133831016604e8410600b84101617156200086d5782820a90508381111562000867576200086662000726565b5b6200089c565b6200087c84848460016200075f565b9250905081840481111562000896576200089562000726565b5b81810290505b9392505050565b5f60ff82169050919050565b5f620008bb82620004f8565b9150620008c883620008a3565b9250620008f77fffffffffffffffffffffffffffffffffffffffffffffffffffffffffffffffff8484620007b9565b905092915050565b5f6200090b82620004f8565b91506200091883620004f8565b92508282026200092881620004f8565b9150828204841483151762000942576200094162000726565b5b5092915050565b5f73ffffffffffffffffffffffffffffffffffffffff82169050919050565b5f620009748262000949565b9050919050565b620009868162000968565b82525050565b5f602082019050620009a15f8301846200097b565b92915050565b5f620009b382620004f8565b9150620009c083620004f8565b9250828201905080821115620009db57620009da62000726565b5b92915050565b620009ec81620004f8565b82525050565b5f60608201905062000a075f8301866200097b565b62000a166020830185620009e1565b62000a256040830184620009e1565b949350505050565b5f60208201905062000a425f830184620009e1565b92915050565b610f978062000a565f395ff3fe608060405234801561000f575f80fd5b50600436106100a7575f3560e01c806370a082311161006f57806370a082311461016557806395d89b4114610195578063a9059cbb146101b3578063c21544d0146101e3578063dd62ed3e146101ff578063f851a4401461022f576100a7565b806306fdde03146100ab578063095ea7b3146100c957806318160ddd146100f957806323b872dd14610117578063313ce56714610147575b5f80fd5b6100b361024d565b6040516100c09190610ba8565b60405180910390f35b6100e360048036038101906100de9190610c59565b6102dd565b6040516100f09190610cb1565b60405180910390f35b6101016102ff565b60405161010e9190610cd9565b60405180910390f35b610131600480360381019061012c9190610cf2565b610308565b60405161013e9190610cb1565b60405180910390f35b61014f610336565b60405161015c9190610d5d565b60405180910390f35b61017f600480360381019061017a9190610d76565b61033e565b60405161018c9190610cd9565b60405180910390f35b61019d610383565b6040516101aa9190610ba8565b60405180910390f35b6101cd60048036038101906101c89190610c59565b610413565b6040516101da9190610cb1565b60405180910390f35b6101fd60048036038101906101f89190610c59565b610435565b005b61021960048036038101906102149190610da1565b6104f4565b6040516102269190610cd9565b60405180910390f35b610237610576565b6040516102449190610dee565b60405180910390f35b60606003805461025c90610e34565b80601f016020809104026020016040519081016040528092919081815260200182805461028890610e34565b80156102d35780601f106102aa576101008083540402835291602001916102d3565b820191905f5260205f20905b8154815290600101906020018083116102b657829003601f168201915b5050505050905090565b5f806102e761059b565b90506102f48185856105a2565b600191505092915050565b5f600254905090565b5f8061031261059b565b905061031f8582856105b4565b61032a858585610646565b60019150509392505050565b5f6012905090565b5f805f8373ffffffffffffffffffffffffffffffffffffffff1673ffffffffffffffffffffffffffffffffffffffff1681526020019081526020015f20549050919050565b60606004805461039290610e34565b80601f01602080910402602001604051908101604052809291908181526020018280546103be90610e34565b80156104095780601f106103e057610100808354040283529160200191610409565b820191905f5260205f20905b8154815290600101906020018083116103ec57829003601f168201915b5050505050905090565b5f8061041d61059b565b905061042a818585610646565b600191505092915050565b60055f9054906101000a900473ffffffffffffffffffffffffffffffffffffffff1673ffffffffffffffffffffffffffffffffffffffff163373ffffffffffffffffffffffffffffffffffffffff16146104c4576040517f08c379a00000000000000000000000000000000000000000000000000000000081526004016104bb90610eae565b60405180910390fd5b6104f060055f9054906101000a900473ffffffffffffffffffffffffffffffffffffffff168383610646565b5050565b5f60015f8473ffffffffffffffffffffffffffffffffffffffff1673ffffffffffffffffffffffffffffffffffffffff1681526020019081526020015f205f8373ffffffffffffffffffffffffffffffffffffffff1673ffffffffffffffffffffffffffffffffffffffff1681526020019081526020015f2054905092915050565b60055f9054906101000a900473ffffffffffffffffffffffffffffffffffffffff1681565b5f33905090565b6105af8383836001610736565b505050565b5f6105bf84846104f4565b90507fffffffffffffffffffffffffffffffffffffffffffffffffffffffffffffffff81146106405781811015610631578281836040517ffb8f41b200000000000000000000000000000000000000000000000000000000815260040161062893929190610ecc565b60405180910390fd5b61063f84848484035f610736565b5b50505050565b5f73ffffffffffffffffffffffffffffffffffffffff168373ffffffffffffffffffffffffffffffffffffffff16036106b6575f6040517f96c6fd1e0000000000000000000000000000000000000000000000000000000081526004016106ad9190610dee565b60405180910390fd5b5f73ffffffffffffffffffffffffffffffffffffffff168273ffffffffffffffffffffffffffffffffffffffff1603610726575f6040517fec442f0500000000000000000000000000000000000000000000000000000000815260040161071d9190610dee565b60405180910390fd5b610731838383610905565b505050565b5f73ffffffffffffffffffffffffffffffffffffffff168473ffffffffffffffffffffffffffffffffffffffff16036107a6575f6040517fe602df0500000000000000000000000000000000000000000000000000000000815260040161079d9190610dee565b60405180910390fd5b5f73ffffffffffffffffffffffffffffffffffffffff168373ffffffffffffffffffffffffffffffffffffffff1603610816575f6040517f94280d6200000000000000000000000000000000000000000000000000000000815260040161080d9190610dee565b60405180910390fd5b8160015f8673ffffffffffffffffffffffffffffffffffffffff1673ffffffffffffffffffffffffffffffffffffffff1681526020019081526020015f205f8573ffffffffffffffffffffffffffffffffffffffff1673ffffffffffffffffffffffffffffffffffffffff1681526020019081526020015f208190555080156108ff578273ffffffffffffffffffffffffffffffffffffffff168473ffffffffffffffffffffffffffffffffffffffff167f8c5be1e5ebec7d5bd14f71427d1e84f3dd0314c0f7b2291e5b200ac8c7c3b925846040516108f69190610cd9565b60405180910390a35b50505050565b5f73ffffffffffffffffffffffffffffffffffffffff168373ffffffffffffffffffffffffffffffffffffffff1603610955578060025f8282546109499190610f2e565b92505081905550610a23565b5f805f8573ffffffffffffffffffffffffffffffffffffffff1673ffffffffffffffffffffffffffffffffffffffff1681526020019081526020015f20549050818110156109de578381836040517fe450d38c0000000000000000000000000000000000000000000000000000000081526004016109d593929190610ecc565b60405180910390fd5b8181035f808673ffffffffffffffffffffffffffffffffffffffff1673ffffffffffffffffffffffffffffffffffffffff1681526020019081526020015f2081905550505b5f73ffffffffffffffffffffffffffffffffffffffff168273ffffffffffffffffffffffffffffffffffffffff1603610a6a578060025f8282540392505081905550610ab4565b805f808473ffffffffffffffffffffffffffffffffffffffff1673ffffffffffffffffffffffffffffffffffffffff1681526020019081526020015f205f82825401925050819055505b8173ffffffffffffffffffffffffffffffffffffffff168373ffffffffffffffffffffffffffffffffffffffff167fddf252ad1be2c89b69c2b068fc378daa952ba7f163c4a11628f55a4df523b3ef83604051610b119190610cd9565b60405180910390a3505050565b5f81519050919050565b5f82825260208201905092915050565b5f5b83811015610b55578082015181840152602081019050610b3a565b5f8484015250505050565b5f601f19601f8301169050919050565b5f610b7a82610b1e565b610b848185610b28565b9350610b94818560208601610b38565b610b9d81610b60565b840191505092915050565b5f6020820190508181035f830152610bc08184610b70565b905092915050565b5f80fd5b5f73ffffffffffffffffffffffffffffffffffffffff82169050919050565b5f610bf582610bcc565b9050919050565b610c0581610beb565b8114610c0f575f80fd5b50565b5f81359050610c2081610bfc565b92915050565b5f819050919050565b610c3881610c26565b8114610c42575f80fd5b50565b5f81359050610c5381610c2f565b92915050565b5f8060408385031215610c6f57610c6e610bc8565b5b5f610c7c85828601610c12565b9250506020610c8d85828601610c45565b9150509250929050565b5f8115159050919050565b610cab81610c97565b82525050565b5f602082019050610cc45f830184610ca2565b92915050565b610cd381610c26565b82525050565b5f602082019050610cec5f830184610cca565b92915050565b5f805f60608486031215610d0957610d08610bc8565b5b5f610d1686828701610c12565b9350506020610d2786828701610c12565b9250506040610d3886828701610c45565b9150509250925092565b5f60ff82169050919050565b610d5781610d42565b82525050565b5f602082019050610d705f830184610d4e565b92915050565b5f60208284031215610d8b57610d8a610bc8565b5b5f610d9884828501610c12565b91505092915050565b5f8060408385031215610db757610db6610bc8565b5b5f610dc485828601610c12565b9250506020610dd585828601610c12565b9150509250929050565b610de881610beb565b82525050565b5f602082019050610e015f830184610ddf565b92915050565b7f4e487b71000000000000000000000000000000000000000000000000000000005f52602260045260245ffd5b5f6002820490506001821680610e4b57607f821691505b602082108103610e5e57610e5d610e07565b5b50919050565b7f4f6e6c792061646d696e2063616e207265776172642073656e736f72730000005f82015250565b5f610e98601d83610b28565b9150610ea382610e64565b602082019050919050565b5f6020820190508181035f830152610ec581610e8c565b9050919050565b5f606082019050610edf5f830186610ddf565b610eec6020830185610cca565b610ef96040830184610cca565b949350505050565b7f4e487b71000000000000000000000000000000000000000000000000000000005f52601160045260245ffd5b5f610f3882610c26565b9150610f4383610c26565b9250828201905080821115610f5b57610f5a610f01565b5b9291505056fea2646970667358221220d942d31a268defe3d546ae709cb17782d8315fa0a9209725019a180f884c07d364736f6c63430008140033",
  "immutableReferences": {},
  "source": "// SPDX-License-Identifier: MIT\r\npragma solidity ^0.8.0;\r\n\r\nimport \"@openzeppelin/contracts/token/ERC20/ERC20.sol\";\r\n\r\ncontract SensorToken is ERC20 {\r\n    address public admin;\r\n\r\n    constructor() ERC20(\"SensorToken\", \"SNT\") {\r\n        admin = msg.sender;\r\n        _mint(msg.sender, 1000000 * 10 ** decimals()); // 1M tokenw dla admina\r\n    }\r\n\r\n    function rewardSensor(address sensor, uint256 amount) external {\r\n        require(msg.sender == admin, \"Only admin can reward sensors\");\r\n        _transfer(admin, sensor, amount);\r\n    }\r\n}\r\n",
  "sourcePath": "F:\\Politechnika\\Sem7\\dotnet\\ECUSensors\\blockchain-project\\contracts\\SensorToken.sol",
  "compiler": {
    "name": "solc",
    "version": "0.8.20+commit.a1b79de6.Emscripten.clang"
  },
  "schemaVersion": "3.4.16",
  "updatedAt": "2025-01-02T14:20:40.451Z",
  "networkType": "ethereum",
  "devdoc": {
    "errors": {
      "ERC20InsufficientAllowance(address,uint256,uint256)": [
        {
          "details": "Indicates a failure with the `spender`s `allowance`. Used in transfers.",
          "params": {
            "allowance": "Amount of tokens a `spender` is allowed to operate with.",
            "needed": "Minimum amount required to perform a transfer.",
            "spender": "Address that may be allowed to operate on tokens without being their owner."
          }
        }
      ],
      "ERC20InsufficientBalance(address,uint256,uint256)": [
        {
          "details": "Indicates an error related to the current `balance` of a `sender`. Used in transfers.",
          "params": {
            "balance": "Current balance for the interacting account.",
            "needed": "Minimum amount required to perform a transfer.",
            "sender": "Address whose tokens are being transferred."
          }
        }
      ],
      "ERC20InvalidApprover(address)": [
        {
          "details": "Indicates a failure with the `approver` of a token to be approved. Used in approvals.",
          "params": {
            "approver": "Address initiating an approval operation."
          }
        }
      ],
      "ERC20InvalidReceiver(address)": [
        {
          "details": "Indicates a failure with the token `receiver`. Used in transfers.",
          "params": {
            "receiver": "Address to which tokens are being transferred."
          }
        }
      ],
      "ERC20InvalidSender(address)": [
        {
          "details": "Indicates a failure with the token `sender`. Used in transfers.",
          "params": {
            "sender": "Address whose tokens are being transferred."
          }
        }
      ],
      "ERC20InvalidSpender(address)": [
        {
          "details": "Indicates a failure with the `spender` to be approved. Used in approvals.",
          "params": {
            "spender": "Address that may be allowed to operate on tokens without being their owner."
          }
        }
      ]
    },
    "events": {
      "Approval(address,address,uint256)": {
        "details": "Emitted when the allowance of a `spender` for an `owner` is set by a call to {approve}. `value` is the new allowance."
      },
      "Transfer(address,address,uint256)": {
        "details": "Emitted when `value` tokens are moved from one account (`from`) to another (`to`). Note that `value` may be zero."
      }
    },
    "kind": "dev",
    "methods": {
      "allowance(address,address)": {
        "details": "See {IERC20-allowance}."
      },
      "approve(address,uint256)": {
        "details": "See {IERC20-approve}. NOTE: If `value` is the maximum `uint256`, the allowance is not updated on `transferFrom`. This is semantically equivalent to an infinite approval. Requirements: - `spender` cannot be the zero address."
      },
      "balanceOf(address)": {
        "details": "See {IERC20-balanceOf}."
      },
      "decimals()": {
        "details": "Returns the number of decimals used to get its user representation. For example, if `decimals` equals `2`, a balance of `505` tokens should be displayed to a user as `5.05` (`505 / 10 ** 2`). Tokens usually opt for a value of 18, imitating the relationship between Ether and Wei. This is the default value returned by this function, unless it's overridden. NOTE: This information is only used for _display_ purposes: it in no way affects any of the arithmetic of the contract, including {IERC20-balanceOf} and {IERC20-transfer}."
      },
      "name()": {
        "details": "Returns the name of the token."
      },
      "symbol()": {
        "details": "Returns the symbol of the token, usually a shorter version of the name."
      },
      "totalSupply()": {
        "details": "See {IERC20-totalSupply}."
      },
      "transfer(address,uint256)": {
        "details": "See {IERC20-transfer}. Requirements: - `to` cannot be the zero address. - the caller must have a balance of at least `value`."
      },
      "transferFrom(address,address,uint256)": {
        "details": "See {IERC20-transferFrom}. Skips emitting an {Approval} event indicating an allowance update. This is not required by the ERC. See {xref-ERC20-_approve-address-address-uint256-bool-}[_approve]. NOTE: Does not update the allowance if the current allowance is the maximum `uint256`. Requirements: - `from` and `to` cannot be the zero address. - `from` must have a balance of at least `value`. - the caller must have allowance for ``from``'s tokens of at least `value`."
      }
    },
    "version": 1
  },
  "userdoc": {
    "kind": "user",
    "methods": {},
    "version": 1
  }
}