{
  "contractName": "SensorToken",
  "abi": [
    {
      "inputs": [],
      "stateMutability": "nonpayable",
      "type": "constructor"
    },
    {
      "anonymous": false,
      "inputs": [
        {
          "indexed": true,
          "internalType": "address",
          "name": "owner",
          "type": "address"
        },
        {
          "indexed": true,
          "internalType": "address",
          "name": "spender",
          "type": "address"
        },
        {
          "indexed": false,
          "internalType": "uint256",
          "name": "value",
          "type": "uint256"
        }
      ],
      "name": "Approval",
      "type": "event"
    },
    {
      "anonymous": false,
      "inputs": [
        {
          "indexed": true,
          "internalType": "address",
          "name": "from",
          "type": "address"
        },
        {
          "indexed": true,
          "internalType": "address",
          "name": "to",
          "type": "address"
        },
        {
          "indexed": false,
          "internalType": "uint256",
          "name": "value",
          "type": "uint256"
        }
      ],
      "name": "Transfer",
      "type": "event"
    },
    {
      "inputs": [
        {
          "internalType": "address",
          "name": "",
          "type": "address"
        },
        {
          "internalType": "address",
          "name": "",
          "type": "address"
        }
      ],
      "name": "allowed",
      "outputs": [
        {
          "internalType": "uint256",
          "name": "",
          "type": "uint256"
        }
      ],
      "stateMutability": "view",
      "type": "function",
      "constant": true
    },
    {
      "inputs": [
        {
          "internalType": "address",
          "name": "",
          "type": "address"
        }
      ],
      "name": "balances",
      "outputs": [
        {
          "internalType": "uint256",
          "name": "",
          "type": "uint256"
        }
      ],
      "stateMutability": "view",
      "type": "function",
      "constant": true
    },
    {
      "inputs": [],
      "name": "decimals",
      "outputs": [
        {
          "internalType": "uint8",
          "name": "",
          "type": "uint8"
        }
      ],
      "stateMutability": "view",
      "type": "function",
      "constant": true
    },
    {
      "inputs": [],
      "name": "name",
      "outputs": [
        {
          "internalType": "string",
          "name": "",
          "type": "string"
        }
      ],
      "stateMutability": "view",
      "type": "function",
      "constant": true
    },
    {
      "inputs": [],
      "name": "owner",
      "outputs": [
        {
          "internalType": "address",
          "name": "",
          "type": "address"
        }
      ],
      "stateMutability": "view",
      "type": "function",
      "constant": true
    },
    {
      "inputs": [],
      "name": "symbol",
      "outputs": [
        {
          "internalType": "string",
          "name": "",
          "type": "string"
        }
      ],
      "stateMutability": "view",
      "type": "function",
      "constant": true
    },
    {
      "inputs": [],
      "name": "totalSupply",
      "outputs": [
        {
          "internalType": "uint256",
          "name": "",
          "type": "uint256"
        }
      ],
      "stateMutability": "view",
      "type": "function",
      "constant": true
    },
    {
      "inputs": [
        {
          "internalType": "address",
          "name": "sensor",
          "type": "address"
        },
        {
          "internalType": "uint256",
          "name": "amount",
          "type": "uint256"
        }
      ],
      "name": "rewardSensor",
      "outputs": [],
      "stateMutability": "nonpayable",
      "type": "function"
    },
    {
      "inputs": [
        {
          "internalType": "address",
          "name": "to",
          "type": "address"
        },
        {
          "internalType": "uint256",
          "name": "value",
          "type": "uint256"
        }
      ],
      "name": "transfer",
      "outputs": [
        {
          "internalType": "bool",
          "name": "",
          "type": "bool"
        }
      ],
      "stateMutability": "nonpayable",
      "type": "function"
    },
    {
      "inputs": [
        {
          "internalType": "address",
          "name": "who",
          "type": "address"
        }
      ],
      "name": "balanceOf",
      "outputs": [
        {
          "internalType": "uint256",
          "name": "",
          "type": "uint256"
        }
      ],
      "stateMutability": "view",
      "type": "function",
      "constant": true
    },
    {
      "inputs": [
        {
          "internalType": "address",
          "name": "tokenOwner",
          "type": "address"
        },
        {
          "internalType": "address",
          "name": "spender",
          "type": "address"
        }
      ],
      "name": "allowance",
      "outputs": [
        {
          "internalType": "uint256",
          "name": "",
          "type": "uint256"
        }
      ],
      "stateMutability": "view",
      "type": "function",
      "constant": true
    },
    {
      "inputs": [
        {
          "internalType": "address",
          "name": "spender",
          "type": "address"
        },
        {
          "internalType": "uint256",
          "name": "value",
          "type": "uint256"
        }
      ],
      "name": "approve",
      "outputs": [
        {
          "internalType": "bool",
          "name": "",
          "type": "bool"
        }
      ],
      "stateMutability": "nonpayable",
      "type": "function"
    },
    {
      "inputs": [
        {
          "internalType": "address",
          "name": "from",
          "type": "address"
        },
        {
          "internalType": "address",
          "name": "to",
          "type": "address"
        },
        {
          "internalType": "uint256",
          "name": "value",
          "type": "uint256"
        }
      ],
      "name": "transferFrom",
      "outputs": [
        {
          "internalType": "bool",
          "name": "",
          "type": "bool"
        }
      ],
      "stateMutability": "nonpayable",
      "type": "function"
    }
  ],
  "bytecode": "0x60806040526040518060400160405280600c81526020017f53656e736f7220546f6b656e00000000000000000000000000000000000000008152505f9081620000499190620003fb565b506040518060400160405280600381526020017f53454e000000000000000000000000000000000000000000000000000000000081525060019081620000909190620003fb565b50601260025f6101000a81548160ff021916908360ff16021790555060025f9054906101000a900460ff1660ff16600a620000cc91906200065c565b620f4240620000dc9190620006ac565b600355348015620000eb575f80fd5b503360045f6101000a81548173ffffffffffffffffffffffffffffffffffffffff021916908373ffffffffffffffffffffffffffffffffffffffff16021790555060035460055f60045f9054906101000a900473ffffffffffffffffffffffffffffffffffffffff1673ffffffffffffffffffffffffffffffffffffffff1673ffffffffffffffffffffffffffffffffffffffff1681526020019081526020015f2081905550620006f6565b5f81519050919050565b7f4e487b71000000000000000000000000000000000000000000000000000000005f52604160045260245ffd5b7f4e487b71000000000000000000000000000000000000000000000000000000005f52602260045260245ffd5b5f60028204905060018216806200021357607f821691505b602082108103620002295762000228620001ce565b5b50919050565b5f819050815f5260205f209050919050565b5f6020601f8301049050919050565b5f82821b905092915050565b5f600883026200028d7fffffffffffffffffffffffffffffffffffffffffffffffffffffffffffffffff8262000250565b62000299868362000250565b95508019841693508086168417925050509392505050565b5f819050919050565b5f819050919050565b5f620002e3620002dd620002d784620002b1565b620002ba565b620002b1565b9050919050565b5f819050919050565b620002fe83620002c3565b620003166200030d82620002ea565b8484546200025c565b825550505050565b5f90565b6200032c6200031e565b62000339818484620002f3565b505050565b5b818110156200036057620003545f8262000322565b6001810190506200033f565b5050565b601f821115620003af5762000379816200022f565b620003848462000241565b8101602085101562000394578190505b620003ac620003a38562000241565b8301826200033e565b50505b505050565b5f82821c905092915050565b5f620003d15f1984600802620003b4565b1980831691505092915050565b5f620003eb8383620003c0565b9150826002028217905092915050565b620004068262000197565b67ffffffffffffffff811115620004225762000421620001a1565b5b6200042e8254620001fb565b6200043b82828562000364565b5f60209050601f83116001811462000471575f84156200045c578287015190505b620004688582620003de565b865550620004d7565b601f19841662000481866200022f565b5f5b82811015620004aa5784890151825560018201915060208501945060208101905062000483565b86831015620004ca5784890151620004c6601f891682620003c0565b8355505b6001600288020188555050505b505050505050565b7f4e487b71000000000000000000000000000000000000000000000000000000005f52601160045260245ffd5b5f8160011c9050919050565b5f808291508390505b60018511156200056957808604811115620005415762000540620004df565b5b6001851615620005515780820291505b808102905062000561856200050c565b945062000521565b94509492505050565b5f8262000583576001905062000655565b8162000592575f905062000655565b8160018114620005ab5760028114620005b657620005ec565b600191505062000655565b60ff841115620005cb57620005ca620004df565b5b8360020a915084821115620005e557620005e4620004df565b5b5062000655565b5060208310610133831016604e8410600b8410161715620006265782820a90508381111562000620576200061f620004df565b5b62000655565b62000635848484600162000518565b925090508184048111156200064f576200064e620004df565b5b81810290505b9392505050565b5f6200066882620002b1565b91506200067583620002b1565b9250620006a47fffffffffffffffffffffffffffffffffffffffffffffffffffffffffffffffff848462000572565b905092915050565b5f620006b882620002b1565b9150620006c583620002b1565b9250828202620006d581620002b1565b91508282048414831517620006ef57620006ee620004df565b5b5092915050565b61131480620007045f395ff3fe608060405234801561000f575f80fd5b50600436106100cd575f3560e01c80635c6581651161008a57806395d89b411161006457806395d89b4114610239578063a9059cbb14610257578063c21544d014610287578063dd62ed3e146102a3576100cd565b80635c658165146101bb57806370a08231146101eb5780638da5cb5b1461021b576100cd565b806306fdde03146100d1578063095ea7b3146100ef57806318160ddd1461011f57806323b872dd1461013d57806327e235e31461016d578063313ce5671461019d575b5f80fd5b6100d96102d3565b6040516100e69190610dc9565b60405180910390f35b61010960048036038101906101049190610e7a565b61035e565b6040516101169190610ed2565b60405180910390f35b61012761044b565b6040516101349190610efa565b60405180910390f35b61015760048036038101906101529190610f13565b610451565b6040516101649190610ed2565b60405180910390f35b61018760048036038101906101829190610f63565b610731565b6040516101949190610efa565b60405180910390f35b6101a5610746565b6040516101b29190610fa9565b60405180910390f35b6101d560048036038101906101d09190610fc2565b610758565b6040516101e29190610efa565b60405180910390f35b61020560048036038101906102009190610f63565b610778565b6040516102129190610efa565b60405180910390f35b6102236107be565b604051610230919061100f565b60405180910390f35b6102416107e3565b60405161024e9190610dc9565b60405180910390f35b610271600480360381019061026c9190610e7a565b61086f565b60405161027e9190610ed2565b60405180910390f35b6102a1600480360381019061029c9190610e7a565b610a05565b005b6102bd60048036038101906102b89190610fc2565b610cbd565b6040516102ca9190610efa565b60405180910390f35b5f80546102df90611055565b80601f016020809104026020016040519081016040528092919081815260200182805461030b90611055565b80156103565780601f1061032d57610100808354040283529160200191610356565b820191905f5260205f20905b81548152906001019060200180831161033957829003601f168201915b505050505081565b5f8160065f3373ffffffffffffffffffffffffffffffffffffffff1673ffffffffffffffffffffffffffffffffffffffff1681526020019081526020015f205f8573ffffffffffffffffffffffffffffffffffffffff1673ffffffffffffffffffffffffffffffffffffffff1681526020019081526020015f20819055508273ffffffffffffffffffffffffffffffffffffffff163373ffffffffffffffffffffffffffffffffffffffff167f8c5be1e5ebec7d5bd14f71427d1e84f3dd0314c0f7b2291e5b200ac8c7c3b925846040516104399190610efa565b60405180910390a36001905092915050565b60035481565b5f8160055f8673ffffffffffffffffffffffffffffffffffffffff1673ffffffffffffffffffffffffffffffffffffffff1681526020019081526020015f205410156104d2576040517f08c379a00000000000000000000000000000000000000000000000000000000081526004016104c9906110cf565b60405180910390fd5b8160065f8673ffffffffffffffffffffffffffffffffffffffff1673ffffffffffffffffffffffffffffffffffffffff1681526020019081526020015f205f3373ffffffffffffffffffffffffffffffffffffffff1673ffffffffffffffffffffffffffffffffffffffff1681526020019081526020015f2054101561058d576040517f08c379a000000000000000000000000000000000000000000000000000000000815260040161058490611137565b60405180910390fd5b8160055f8673ffffffffffffffffffffffffffffffffffffffff1673ffffffffffffffffffffffffffffffffffffffff1681526020019081526020015f205f8282546105d99190611182565b925050819055508160055f8573ffffffffffffffffffffffffffffffffffffffff1673ffffffffffffffffffffffffffffffffffffffff1681526020019081526020015f205f82825461062c91906111b5565b925050819055508160065f8673ffffffffffffffffffffffffffffffffffffffff1673ffffffffffffffffffffffffffffffffffffffff1681526020019081526020015f205f3373ffffffffffffffffffffffffffffffffffffffff1673ffffffffffffffffffffffffffffffffffffffff1681526020019081526020015f205f8282546106ba9190611182565b925050819055508273ffffffffffffffffffffffffffffffffffffffff168473ffffffffffffffffffffffffffffffffffffffff167fddf252ad1be2c89b69c2b068fc378daa952ba7f163c4a11628f55a4df523b3ef8460405161071e9190610efa565b60405180910390a3600190509392505050565b6005602052805f5260405f205f915090505481565b60025f9054906101000a900460ff1681565b6006602052815f5260405f20602052805f5260405f205f91509150505481565b5f60055f8373ffffffffffffffffffffffffffffffffffffffff1673ffffffffffffffffffffffffffffffffffffffff1681526020019081526020015f20549050919050565b60045f9054906101000a900473ffffffffffffffffffffffffffffffffffffffff1681565b600180546107f090611055565b80601f016020809104026020016040519081016040528092919081815260200182805461081c90611055565b80156108675780601f1061083e57610100808354040283529160200191610867565b820191905f5260205f20905b81548152906001019060200180831161084a57829003601f168201915b505050505081565b5f8160055f3373ffffffffffffffffffffffffffffffffffffffff1673ffffffffffffffffffffffffffffffffffffffff1681526020019081526020015f205410156108f0576040517f08c379a00000000000000000000000000000000000000000000000000000000081526004016108e7906110cf565b60405180910390fd5b8160055f3373ffffffffffffffffffffffffffffffffffffffff1673ffffffffffffffffffffffffffffffffffffffff1681526020019081526020015f205f82825461093c9190611182565b925050819055508160055f8573ffffffffffffffffffffffffffffffffffffffff1673ffffffffffffffffffffffffffffffffffffffff1681526020019081526020015f205f82825461098f91906111b5565b925050819055508273ffffffffffffffffffffffffffffffffffffffff163373ffffffffffffffffffffffffffffffffffffffff167fddf252ad1be2c89b69c2b068fc378daa952ba7f163c4a11628f55a4df523b3ef846040516109f39190610efa565b60405180910390a36001905092915050565b60045f9054906101000a900473ffffffffffffffffffffffffffffffffffffffff1673ffffffffffffffffffffffffffffffffffffffff163373ffffffffffffffffffffffffffffffffffffffff1614610a5d575f80fd5b5f73ffffffffffffffffffffffffffffffffffffffff168273ffffffffffffffffffffffffffffffffffffffff1603610acb576040517f08c379a0000000000000000000000000000000000000000000000000000000008152600401610ac290611232565b60405180910390fd5b8060055f60045f9054906101000a900473ffffffffffffffffffffffffffffffffffffffff1673ffffffffffffffffffffffffffffffffffffffff1673ffffffffffffffffffffffffffffffffffffffff1681526020019081526020015f20541015610b6c576040517f08c379a0000000000000000000000000000000000000000000000000000000008152600401610b63906112c0565b60405180910390fd5b8060055f60045f9054906101000a900473ffffffffffffffffffffffffffffffffffffffff1673ffffffffffffffffffffffffffffffffffffffff1673ffffffffffffffffffffffffffffffffffffffff1681526020019081526020015f205f828254610bd99190611182565b925050819055508060055f8473ffffffffffffffffffffffffffffffffffffffff1673ffffffffffffffffffffffffffffffffffffffff1681526020019081526020015f205f828254610c2c91906111b5565b925050819055508173ffffffffffffffffffffffffffffffffffffffff1660045f9054906101000a900473ffffffffffffffffffffffffffffffffffffffff1673ffffffffffffffffffffffffffffffffffffffff167fddf252ad1be2c89b69c2b068fc378daa952ba7f163c4a11628f55a4df523b3ef83604051610cb19190610efa565b60405180910390a35050565b5f60065f8473ffffffffffffffffffffffffffffffffffffffff1673ffffffffffffffffffffffffffffffffffffffff1681526020019081526020015f205f8373ffffffffffffffffffffffffffffffffffffffff1673ffffffffffffffffffffffffffffffffffffffff1681526020019081526020015f2054905092915050565b5f81519050919050565b5f82825260208201905092915050565b5f5b83811015610d76578082015181840152602081019050610d5b565b5f8484015250505050565b5f601f19601f8301169050919050565b5f610d9b82610d3f565b610da58185610d49565b9350610db5818560208601610d59565b610dbe81610d81565b840191505092915050565b5f6020820190508181035f830152610de18184610d91565b905092915050565b5f80fd5b5f73ffffffffffffffffffffffffffffffffffffffff82169050919050565b5f610e1682610ded565b9050919050565b610e2681610e0c565b8114610e30575f80fd5b50565b5f81359050610e4181610e1d565b92915050565b5f819050919050565b610e5981610e47565b8114610e63575f80fd5b50565b5f81359050610e7481610e50565b92915050565b5f8060408385031215610e9057610e8f610de9565b5b5f610e9d85828601610e33565b9250506020610eae85828601610e66565b9150509250929050565b5f8115159050919050565b610ecc81610eb8565b82525050565b5f602082019050610ee55f830184610ec3565b92915050565b610ef481610e47565b82525050565b5f602082019050610f0d5f830184610eeb565b92915050565b5f805f60608486031215610f2a57610f29610de9565b5b5f610f3786828701610e33565b9350506020610f4886828701610e33565b9250506040610f5986828701610e66565b9150509250925092565b5f60208284031215610f7857610f77610de9565b5b5f610f8584828501610e33565b91505092915050565b5f60ff82169050919050565b610fa381610f8e565b82525050565b5f602082019050610fbc5f830184610f9a565b92915050565b5f8060408385031215610fd857610fd7610de9565b5b5f610fe585828601610e33565b9250506020610ff685828601610e33565b9150509250929050565b61100981610e0c565b82525050565b5f6020820190506110225f830184611000565b92915050565b7f4e487b71000000000000000000000000000000000000000000000000000000005f52602260045260245ffd5b5f600282049050600182168061106c57607f821691505b60208210810361107f5761107e611028565b5b50919050565b7f496e73756666696369656e742062616c616e63650000000000000000000000005f82015250565b5f6110b9601483610d49565b91506110c482611085565b602082019050919050565b5f6020820190508181035f8301526110e6816110ad565b9050919050565b7f4e6f7420616c6c6f77656420746f207370656e640000000000000000000000005f82015250565b5f611121601483610d49565b915061112c826110ed565b602082019050919050565b5f6020820190508181035f83015261114e81611115565b9050919050565b7f4e487b71000000000000000000000000000000000000000000000000000000005f52601160045260245ffd5b5f61118c82610e47565b915061119783610e47565b92508282039050818111156111af576111ae611155565b5b92915050565b5f6111bf82610e47565b91506111ca83610e47565b92508282019050808211156111e2576111e1611155565b5b92915050565b7f496e76616c69642073656e736f722061646472657373000000000000000000005f82015250565b5f61121c601683610d49565b9150611227826111e8565b602082019050919050565b5f6020820190508181035f83015261124981611210565b9050919050565b7f496e73756666696369656e7420746f6b656e7320696e2074686520636f6e74725f8201527f6163740000000000000000000000000000000000000000000000000000000000602082015250565b5f6112aa602383610d49565b91506112b582611250565b604082019050919050565b5f6020820190508181035f8301526112d78161129e565b905091905056fea264697066735822122036a98a93d6e4b6cf2bf549d9b0a01083a9493eba5d94f8da935d7e2a6b3968b764736f6c63430008140033",
  "immutableReferences": {},
  "source": "// SPDX-License-Identifier: MIT\r\npragma solidity ^0.8.20;\r\n\r\ninterface IERC20 {\r\n\r\n\t /**\r\n     * @dev Returns the balance of tokens held by the given address (`who`).\r\n     * @param who The address to query the balance for.\r\n     * @return The number of tokens owned by the given address.\r\n     */\r\n    function balanceOf(address who) external view returns (uint256);\r\n\r\n    /**\r\n     * @dev Transfers a specified amount of tokens (`value`) to the address `to`.\r\n     * Must return `true` if the transaction succeeds.\r\n     * @param to The address of the token recipient.\r\n     * @param value The number of tokens to transfer.\r\n     * @return Returns `true` if the operation is successful.\r\n     */\r\n    function transfer(address to, uint256 value) external returns (bool);\r\n\r\n    /**\r\n     * @dev Checks how many tokens the owner (`owner`) has approved for use by the address (`spender`).\r\n     * @param tokenOwner The address of the token owner.\r\n     * @param spender The address allowed to spend the tokens.\r\n     * @return The number of tokens the `spender` is allowed to use.\r\n     */\r\n    function allowance(address tokenOwner, address spender) external view returns (uint256);\r\n\r\n    /**\r\n     * @dev Approves the address (`spender`) to spend a specified number of tokens (`value`)\r\n     * on behalf of the contract owner.\r\n     * Must return `true` if the operation is successful.\r\n     * @param spender The address allowed to spend the tokens.\r\n     * @param value The number of tokens to approve.\r\n     * @return Returns `true` if the operation is successful.\r\n     */\r\n    function approve(address spender, uint256 value) external returns (bool);\r\n\r\n    /**\r\n     * @dev Transfers tokens from one address (`from`) to another (`to`) if previously approved.\r\n     * Must return `true` if the operation is successful.\r\n     * @param from The address from which the tokens are sent.\r\n     * @param to The address to which the tokens are sent.\r\n     * @param value The number of tokens to transfer.\r\n     * @return Returns `true` if the operation is successful.\r\n     */\r\n    function transferFrom(address from, address to, uint256 value) external returns (bool);\r\n\r\n    /**\r\n     * @dev Returns the total number of tokens available in the system.\r\n     * @return The total number of tokens in circulation.\r\n     */\r\n    function totalSupply() external view returns (uint256);\r\n}\r\n\r\ncontract SensorToken is IERC20 {\r\n    string public name = \"Sensor Token\";\r\n    string public symbol = \"SEN\";\r\n    uint8 public decimals = 18; \r\n    uint256 public totalSupply = 1000000 * 10 ** uint256(decimals);\r\n    address public owner;\r\n    mapping(address => uint256) public balances;\r\n    mapping(address => mapping(address => uint256)) public allowed;\r\n\r\n    constructor() {\r\n        owner = msg.sender;\r\n        balances[owner] = totalSupply;\r\n    }\r\n\t\r\n\tfunction rewardSensor(address sensor, uint256 amount) external onlyOwner {\r\n        require(sensor != address(0), \"Invalid sensor address\");\r\n        require(balances[owner] >= amount, \"Insufficient tokens in the contract\");\r\n        balances[owner] -= amount;\r\n        balances[sensor] += amount;\r\n        emit Transfer(owner, sensor, amount);\r\n    }\r\n\r\n    function transfer(address to, uint256 value) public override returns (bool) {\r\n        require(balances[msg.sender] >= value, \"Insufficient balance\");\r\n        balances[msg.sender] -= value;\r\n        balances[to] += value;\r\n        emit Transfer(msg.sender, to, value);\r\n        return true;\r\n    }\r\n\r\n    function balanceOf(address who) public view override returns (uint256) {\r\n        return balances[who];\r\n    }\r\n\r\n    function allowance(address tokenOwner, address spender) public view override returns (uint256) {\r\n        return allowed[tokenOwner][spender];\r\n    }\r\n\r\n    function approve(address spender, uint256 value) public override returns (bool) {\r\n        allowed[msg.sender][spender] = value;\r\n        emit Approval(msg.sender, spender, value);\r\n        return true;\r\n    }\r\n\r\n    function transferFrom(address from, address to, uint256 value) public override returns (bool) {\r\n        require(balances[from] >= value, \"Insufficient balance\");\r\n        require(allowed[from][msg.sender] >= value, \"Not allowed to spend\");\r\n        balances[from] -= value;\r\n        balances[to] += value;\r\n        allowed[from][msg.sender] -= value;\r\n        emit Transfer(from, to, value);\r\n        return true;\r\n    }\r\n\r\n    modifier onlyOwner() {\r\n        require(msg.sender == owner);\r\n        _;\r\n    }\r\n    event Transfer(address indexed from, address indexed to, uint256 value);\r\n    event Approval(address indexed owner, address indexed spender, uint256 value);\r\n}\r\n",
  "sourcePath": "F:\\Politechnika\\Sem7\\dotnet\\ECUSensors\\blockchain-project\\contracts\\SensorToken.sol",
  "compiler": {
    "name": "solc",
    "version": "0.8.20+commit.a1b79de6.Emscripten.clang"
  },
  "schemaVersion": "3.4.16",
  "updatedAt": "2025-01-03T12:54:39.486Z",
  "networkType": "ethereum",
  "devdoc": {
    "kind": "dev",
    "methods": {
      "allowance(address,address)": {
        "details": "Checks how many tokens the owner (`owner`) has approved for use by the address (`spender`).",
        "params": {
          "spender": "The address allowed to spend the tokens.",
          "tokenOwner": "The address of the token owner."
        },
        "returns": {
          "_0": "The number of tokens the `spender` is allowed to use."
        }
      },
      "approve(address,uint256)": {
        "details": "Approves the address (`spender`) to spend a specified number of tokens (`value`) on behalf of the contract owner. Must return `true` if the operation is successful.",
        "params": {
          "spender": "The address allowed to spend the tokens.",
          "value": "The number of tokens to approve."
        },
        "returns": {
          "_0": "Returns `true` if the operation is successful."
        }
      },
      "balanceOf(address)": {
        "details": "Returns the balance of tokens held by the given address (`who`).",
        "params": {
          "who": "The address to query the balance for."
        },
        "returns": {
          "_0": "The number of tokens owned by the given address."
        }
      },
      "transfer(address,uint256)": {
        "details": "Transfers a specified amount of tokens (`value`) to the address `to`. Must return `true` if the transaction succeeds.",
        "params": {
          "to": "The address of the token recipient.",
          "value": "The number of tokens to transfer."
        },
        "returns": {
          "_0": "Returns `true` if the operation is successful."
        }
      },
      "transferFrom(address,address,uint256)": {
        "details": "Transfers tokens from one address (`from`) to another (`to`) if previously approved. Must return `true` if the operation is successful.",
        "params": {
          "from": "The address from which the tokens are sent.",
          "to": "The address to which the tokens are sent.",
          "value": "The number of tokens to transfer."
        },
        "returns": {
          "_0": "Returns `true` if the operation is successful."
        }
      }
    },
    "stateVariables": {
      "totalSupply": {
        "details": "Returns the total number of tokens available in the system.",
        "return": "The total number of tokens in circulation.",
        "returns": {
          "_0": "The total number of tokens in circulation."
        }
      }
    },
    "version": 1
  },
  "userdoc": {
    "kind": "user",
    "methods": {},
    "version": 1
  }
}